{
  "contractName": "Kittycontract",
  "abi": [
    {
      "anonymous": false,
      "inputs": [
        {
          "indexed": true,
          "internalType": "address",
          "name": "owner",
          "type": "address"
        },
        {
          "indexed": true,
          "internalType": "address",
          "name": "approved",
          "type": "address"
        },
        {
          "indexed": true,
          "internalType": "uint256",
          "name": "tokenId",
          "type": "uint256"
        }
      ],
      "name": "Approval",
      "type": "event"
    },
    {
      "anonymous": false,
      "inputs": [
        {
          "indexed": true,
          "internalType": "address",
          "name": "owner",
          "type": "address"
        },
        {
          "indexed": true,
          "internalType": "address",
          "name": "operator",
          "type": "address"
        },
        {
          "indexed": false,
          "internalType": "bool",
          "name": "approved",
          "type": "bool"
        }
      ],
      "name": "ApprovalForAll",
      "type": "event"
    },
    {
      "anonymous": false,
      "inputs": [
        {
          "indexed": false,
          "internalType": "address",
          "name": "owner",
          "type": "address"
        },
        {
          "indexed": false,
          "internalType": "uint256",
          "name": "kittenId",
          "type": "uint256"
        },
        {
          "indexed": false,
          "internalType": "uint256",
          "name": "mumId",
          "type": "uint256"
        },
        {
          "indexed": false,
          "internalType": "uint256",
          "name": "dadId",
          "type": "uint256"
        },
        {
          "indexed": false,
          "internalType": "uint256",
          "name": "genes",
          "type": "uint256"
        }
      ],
      "name": "Birth",
      "type": "event"
    },
    {
      "anonymous": false,
      "inputs": [
        {
          "indexed": true,
          "internalType": "address",
          "name": "oldOwner",
          "type": "address"
        },
        {
          "indexed": true,
          "internalType": "address",
          "name": "newOwner",
          "type": "address"
        }
      ],
      "name": "OwnerSet",
      "type": "event"
    },
    {
      "anonymous": false,
      "inputs": [
        {
          "indexed": true,
          "internalType": "address",
          "name": "from",
          "type": "address"
        },
        {
          "indexed": true,
          "internalType": "address",
          "name": "to",
          "type": "address"
        },
        {
          "indexed": true,
          "internalType": "uint256",
          "name": "tokenId",
          "type": "uint256"
        }
      ],
      "name": "Transfer",
      "type": "event"
    },
    {
      "inputs": [],
      "name": "CREATION_LIMIT_GEN0",
      "outputs": [
        {
          "internalType": "uint256",
          "name": "",
          "type": "uint256"
        }
      ],
      "stateMutability": "view",
      "type": "function",
      "constant": true
    },
    {
      "inputs": [
        {
          "internalType": "address",
          "name": "newOwner",
          "type": "address"
        }
      ],
      "name": "changeOwner",
      "outputs": [],
      "stateMutability": "nonpayable",
      "type": "function"
    },
    {
      "inputs": [],
      "name": "gen0Counter",
      "outputs": [
        {
          "internalType": "uint256",
          "name": "",
          "type": "uint256"
        }
      ],
      "stateMutability": "view",
      "type": "function",
      "constant": true
    },
    {
      "inputs": [],
      "name": "getOwner",
      "outputs": [
        {
          "internalType": "address",
          "name": "",
          "type": "address"
        }
      ],
      "stateMutability": "view",
      "type": "function",
      "constant": true
    },
    {
      "inputs": [
        {
          "internalType": "uint256",
          "name": "",
          "type": "uint256"
        }
      ],
      "name": "kittyIndexToApproved",
      "outputs": [
        {
          "internalType": "address",
          "name": "",
          "type": "address"
        }
      ],
      "stateMutability": "view",
      "type": "function",
      "constant": true
    },
    {
      "inputs": [
        {
          "internalType": "uint256",
          "name": "",
          "type": "uint256"
        }
      ],
      "name": "kittyIndexToOwner",
      "outputs": [
        {
          "internalType": "address",
          "name": "",
          "type": "address"
        }
      ],
      "stateMutability": "view",
      "type": "function",
      "constant": true
    },
    {
      "inputs": [],
      "name": "tokenName",
      "outputs": [
        {
          "internalType": "string",
          "name": "",
          "type": "string"
        }
      ],
      "stateMutability": "view",
      "type": "function",
      "constant": true
    },
    {
      "inputs": [],
      "name": "tokenSymbol",
      "outputs": [
        {
          "internalType": "string",
          "name": "",
          "type": "string"
        }
      ],
      "stateMutability": "view",
      "type": "function",
      "constant": true
    },
    {
      "inputs": [
        {
          "internalType": "uint256",
          "name": "_dadId",
          "type": "uint256"
        },
        {
          "internalType": "uint256",
          "name": "_mumId",
          "type": "uint256"
        }
      ],
      "name": "breed",
      "outputs": [
        {
          "internalType": "uint256",
          "name": "",
          "type": "uint256"
        }
      ],
      "stateMutability": "nonpayable",
      "type": "function"
    },
    {
      "inputs": [
        {
          "internalType": "bytes4",
          "name": "_interfaceId",
          "type": "bytes4"
        }
      ],
      "name": "supportsInterface",
      "outputs": [
        {
          "internalType": "bool",
          "name": "",
          "type": "bool"
        }
      ],
      "stateMutability": "pure",
      "type": "function",
      "constant": true
    },
    {
      "inputs": [
        {
          "internalType": "uint256",
          "name": "_genes",
          "type": "uint256"
        }
      ],
      "name": "createKittyGen0",
      "outputs": [
        {
          "internalType": "uint256",
          "name": "",
          "type": "uint256"
        }
      ],
      "stateMutability": "nonpayable",
      "type": "function"
    },
    {
      "inputs": [
        {
          "internalType": "uint256",
          "name": "_tokenId",
          "type": "uint256"
        }
      ],
      "name": "getKitty",
      "outputs": [
        {
          "components": [
            {
              "internalType": "uint256",
              "name": "genes",
              "type": "uint256"
            },
            {
              "internalType": "uint64",
              "name": "birthTime",
              "type": "uint64"
            },
            {
              "internalType": "uint64",
              "name": "mumId",
              "type": "uint64"
            },
            {
              "internalType": "uint32",
              "name": "dadId",
              "type": "uint32"
            },
            {
              "internalType": "uint16",
              "name": "generation",
              "type": "uint16"
            }
          ],
          "internalType": "struct Kittycontract.Kitty",
          "name": "",
          "type": "tuple"
        }
      ],
      "stateMutability": "view",
      "type": "function",
      "constant": true
    },
    {
      "inputs": [
        {
          "internalType": "address",
          "name": "_owner",
          "type": "address"
        }
      ],
      "name": "balanceOf",
      "outputs": [
        {
          "internalType": "uint256",
          "name": "balance",
          "type": "uint256"
        }
      ],
      "stateMutability": "view",
      "type": "function",
      "constant": true
    },
    {
      "inputs": [],
      "name": "totalSupply",
      "outputs": [
        {
          "internalType": "uint256",
          "name": "",
          "type": "uint256"
        }
      ],
      "stateMutability": "view",
      "type": "function",
      "constant": true
    },
    {
      "inputs": [],
      "name": "name",
      "outputs": [
        {
          "internalType": "string",
          "name": "",
          "type": "string"
        }
      ],
      "stateMutability": "pure",
      "type": "function",
      "constant": true
    },
    {
      "inputs": [],
      "name": "symbol",
      "outputs": [
        {
          "internalType": "string",
          "name": "",
          "type": "string"
        }
      ],
      "stateMutability": "pure",
      "type": "function",
      "constant": true
    },
    {
      "inputs": [
        {
          "internalType": "uint256",
          "name": "_tokenId",
          "type": "uint256"
        }
      ],
      "name": "ownerOf",
      "outputs": [
        {
          "internalType": "address",
          "name": "owner",
          "type": "address"
        }
      ],
      "stateMutability": "view",
      "type": "function",
      "constant": true
    },
    {
      "inputs": [
        {
          "internalType": "address",
          "name": "_to",
          "type": "address"
        },
        {
          "internalType": "uint256",
          "name": "_tokenId",
          "type": "uint256"
        }
      ],
      "name": "transfer",
      "outputs": [],
      "stateMutability": "nonpayable",
      "type": "function"
    },
    {
      "inputs": [
        {
          "internalType": "address",
          "name": "_approved",
          "type": "address"
        },
        {
          "internalType": "uint256",
          "name": "_tokenId",
          "type": "uint256"
        }
      ],
      "name": "approve",
      "outputs": [],
      "stateMutability": "nonpayable",
      "type": "function"
    },
    {
      "inputs": [
        {
          "internalType": "address",
          "name": "_operator",
          "type": "address"
        },
        {
          "internalType": "bool",
          "name": "_approved",
          "type": "bool"
        }
      ],
      "name": "setApprovalForAll",
      "outputs": [],
      "stateMutability": "nonpayable",
      "type": "function"
    },
    {
      "inputs": [
        {
          "internalType": "uint256",
          "name": "_tokenId",
          "type": "uint256"
        }
      ],
      "name": "getApproved",
      "outputs": [
        {
          "internalType": "address",
          "name": "",
          "type": "address"
        }
      ],
      "stateMutability": "view",
      "type": "function",
      "constant": true
    },
    {
      "inputs": [
        {
          "internalType": "address",
          "name": "_owner",
          "type": "address"
        },
        {
          "internalType": "address",
          "name": "_operator",
          "type": "address"
        }
      ],
      "name": "isApprovedForAll",
      "outputs": [
        {
          "internalType": "bool",
          "name": "",
          "type": "bool"
        }
      ],
      "stateMutability": "view",
      "type": "function",
      "constant": true
    },
    {
      "inputs": [
        {
          "internalType": "address",
          "name": "_from",
          "type": "address"
        },
        {
          "internalType": "address",
          "name": "_to",
          "type": "address"
        },
        {
          "internalType": "uint256",
          "name": "_tokenId",
          "type": "uint256"
        }
      ],
      "name": "transferFrom",
      "outputs": [],
      "stateMutability": "nonpayable",
      "type": "function"
    },
    {
      "inputs": [
        {
          "internalType": "address",
          "name": "_from",
          "type": "address"
        },
        {
          "internalType": "address",
          "name": "_to",
          "type": "address"
        },
        {
          "internalType": "uint256",
          "name": "_tokenId",
          "type": "uint256"
        }
      ],
      "name": "safeTransferFrom",
      "outputs": [],
      "stateMutability": "nonpayable",
      "type": "function"
    },
    {
      "inputs": [
        {
          "internalType": "address",
          "name": "_from",
          "type": "address"
        },
        {
          "internalType": "address",
          "name": "_to",
          "type": "address"
        },
        {
          "internalType": "uint256",
          "name": "_tokenId",
          "type": "uint256"
        },
        {
          "internalType": "bytes",
          "name": "data",
          "type": "bytes"
        }
      ],
      "name": "safeTransferFrom",
      "outputs": [],
      "stateMutability": "nonpayable",
      "type": "function"
    }
  ],
  "bytecode": "0x608060405234801561001057600080fd5b5060008054600160a060020a0319163390811782556040519091907f342827c97908e5e2f71151c08502a66d44b6f758e3ac2f1de95f02eb95f0a735908290a36119108061005f6000396000f3fe608060405234801561001057600080fd5b5060043610610190576000357c010000000000000000000000000000000000000000000000000000000090048063893d20e8116100fb578063b4834330116100b4578063d9ecad7b1161008e578063d9ecad7b14610444578063e985e9c514610457578063e98b7f4d1461046a578063ef5e94aa146104d957600080fd5b8063b483433014610416578063b88d4fde1461041e578063d5a776ca1461043157600080fd5b8063893d20e81461036a57806395d89b411461037b578063a22cb465146103b4578063a45f4bfc146103c7578063a6f9dae1146103f0578063a9059cbb1461040357600080fd5b806342842e0e1161014d57806342842e0e14610264578063481af3d3146102775780636352211e146102a05780636c02a931146102c957806370a08231146103055780637b61c3201461032e57600080fd5b806301ffc9a71461019557806306fdde03146101bd578063081812fc146101ff578063095ea7b31461022a57806318160ddd1461023f57806323b872dd14610251575b600080fd5b6101a86101a33660046116dc565b6104e2565b60405190151581526020015b60405180910390f35b60408051808201909152600f81527f4d756261736869724b697474696573000000000000000000000000000000000060208201525b6040516101b491906117d4565b61021261020d366004611714565b61054b565b604051600160a060020a0390911681526020016101b4565b61023d6102383660046116b3565b610588565b005b6001545b6040519081526020016101b4565b61023d61025f3660046115a8565b6106d5565b61023d6102723660046115a8565b610770565b610212610285366004611714565b600460205260009081526040902054600160a060020a031681565b6102126102ae366004611714565b600090815260036020526040902054600160a060020a031690565b6101f26040518060400160405280600f81526020017f4d756261736869724b697474696573000000000000000000000000000000000081525081565b610243610313366004611555565b600160a060020a031660009081526002602052604090205490565b6101f26040518060400160405280600281526020017f4d4b00000000000000000000000000000000000000000000000000000000000081525081565b600054600160a060020a0316610212565b60408051808201909152600281527f4d4b00000000000000000000000000000000000000000000000000000000000060208201526101f2565b61023d6103c2366004611679565b610816565b6102126103d5366004611714565b600360205260009081526040902054600160a060020a031681565b61023d6103fe366004611555565b610904565b61023d6104113660046116b3565b6109c9565b610243600a81565b61023d61042c3660046115e3565b610b58565b61024361043f366004611714565b610c2c565b61024361045236600461172c565b610d2e565b6101a8610465366004611576565b610ed4565b61047d610478366004611714565b610f02565b6040516101b49190600060a08201905082518252602083015167ffffffffffffffff8082166020850152806040860151166040850152505063ffffffff606084015116606083015261ffff608084015116608083015292915050565b61024360065481565b6000600160e060020a031982167f80ac58cd0000000000000000000000000000000000000000000000000000000014806105455750600160e060020a031982167f01ffc9a700000000000000000000000000000000000000000000000000000000145b92915050565b600081815260036020526040812054600160a060020a031661056c57600080fd5b50600090815260046020526040902054600160a060020a031690565b6105923382610fe4565b806105c55750336000908152600560209081526040808320600160a060020a038616845290915290205460ff1615156001145b6106655760405160e560020a62461bcd02815260206004820152604f60248201527f43616e6e6f742073657420617070726f76616c20666f72207468697320746f6b60448201527f656e496420696620796f7520646f6e2774206f776e206974206f72206172652060648201527f617070726f76656420666f722069740000000000000000000000000000000000608482015260a4015b60405180910390fd5b6000818152600460205260409020805473ffffffffffffffffffffffffffffffffffffffff1916600160a060020a0384161790556040518190600160a060020a0384169033907f8c5be1e5ebec7d5bd14f71427d1e84f3dd0314c0f7b2291e5b200ac8c7c3b92590600090a45050565b6106df3382610fe4565b806107005750600081815260046020526040902054600160a060020a031633145b8061071057506107108333610ed4565b61071957600080fd5b600081815260036020526040902054600160a060020a0384811691161461073f57600080fd5b600160a060020a03821661075257600080fd5b600154811061076057600080fd5b61076b838383611004565b505050565b61077a3382610fe4565b8061079b5750600081815260046020526040902054600160a060020a031633145b806107ab57506107ab8333610ed4565b6107b457600080fd5b600081815260036020526040902054600160a060020a038481169116146107da57600080fd5b600160a060020a0382166107ed57600080fd5b60015481106107fb57600080fd5b61076b838383604051806020016040528060008152506110fd565b600160a060020a0382163314156108985760405160e560020a62461bcd02815260206004820152602260248201527f43616e6e6f7420736574206173736574206f776e6572206173206f706572617460448201527f6f72000000000000000000000000000000000000000000000000000000000000606482015260840161065c565b336000818152600560209081526040808320600160a060020a03871680855290835292819020805460ff191686151590811790915590519081529192917f17307eab39ab6107e8899845ad3d59bd9653f200f220920489ca2b5937696c31910160405180910390a35050565b600054600160a060020a031633146109615760405160e560020a62461bcd02815260206004820152601360248201527f43616c6c6572206973206e6f74206f776e657200000000000000000000000000604482015260640161065c565b60008054604051600160a060020a03808516939216917f342827c97908e5e2f71151c08502a66d44b6f758e3ac2f1de95f02eb95f0a73591a36000805473ffffffffffffffffffffffffffffffffffffffff1916600160a060020a0392909216919091179055565b600160a060020a038216610a485760405160e560020a62461bcd02815260206004820152602760248201527f43616e6e6f74207472616e7366657220746f6b656e496420746f207a65726f2060448201527f6164647265737300000000000000000000000000000000000000000000000000606482015260840161065c565b600160a060020a038216301415610aca5760405160e560020a62461bcd02815260206004820152602b60248201527f43616e6e6f74207472616e7366657220746f6b656e496420746f20636f6e747260448201527f6163742061646472657373000000000000000000000000000000000000000000606482015260840161065c565b610ad43382610fe4565b610b495760405160e560020a62461bcd02815260206004820152602b60248201527f43616e6e6f74207472616e7366657220746f6b656e496420696620796f75206460448201527f6f6e2774206f776e206974000000000000000000000000000000000000000000606482015260840161065c565b610b54338383611004565b5050565b610b623384610fe4565b80610b835750600083815260046020526040902054600160a060020a031633145b80610b935750610b938533610ed4565b610b9c57600080fd5b600083815260036020526040902054600160a060020a03868116911614610bc257600080fd5b600160a060020a038416610bd557600080fd5b6001548310610be357600080fd5b610c2585858585858080601f0160208091040260200160405190810160405280939291908181526020018383808284376000920191909152506110fd92505050565b5050505050565b60008054600160a060020a03163314610c8a5760405160e560020a62461bcd02815260206004820152601360248201527f43616c6c6572206973206e6f74206f776e657200000000000000000000000000604482015260640161065c565b600a60065410610d055760405160e560020a62461bcd02815260206004820152602260248201527f4372656174696f6e206c696d697420666f72204b69747469657320726561636860448201527f6564000000000000000000000000000000000000000000000000000000000000606482015260840161065c565b60068054906000610d1583611860565b919050555061054560008060008533611123565b919050565b6000610d3a3384610fe4565b8015610d4b5750610d4b3383610fe4565b610dc05760405160e560020a62461bcd02815260206004820152602860248201527f596f75206d757374206f776e20626f7468206361747320696e206f726465722060448201527f746f206272656564000000000000000000000000000000000000000000000000606482015260840161065c565b6000610dcc84846112ee565b905060008060018581548110610df55760e060020a634e487b7102600052603260045260246000fd5b906000526020600020906002020160010160149054906101000a900461ffff1661ffff169050600060018781548110610e415760e060020a634e487b7102600052603260045260246000fd5b600091825260209091206002909102016001015474010000000000000000000000000000000000000000900461ffff16905081811015610e9a57610e868260016117e7565b9250610e936002846117ff565b9250610ebb565b81811115610ead57610e868160016117e7565b610eb88260016117e7565b92505b610ec88487898633611123565b50929695505050505050565b600160a060020a03918216600090815260056020908152604080832093909416825291909152205460ff1690565b6040805160a08101825260008082526020820181905291810182905260608101829052608081019190915260018281548110610f515760e060020a634e487b7102600052603260045260246000fd5b60009182526020918290206040805160a081018252600293909302909101805483526001015467ffffffffffffffff8082169484019490945268010000000000000000810490931690820152700100000000000000000000000000000000820463ffffffff1660608201527401000000000000000000000000000000000000000090910461ffff16608082015292915050565b600090815260036020526040902054600160a060020a0391821691161490565b600160a060020a038216600090815260026020526040812080549161102883611860565b90915550506000818152600360205260409020805473ffffffffffffffffffffffffffffffffffffffff1916600160a060020a03848116919091179091558316156110c057600160a060020a038316600090815260026020526040812080549161109183611849565b90915550506000818152600460205260409020805473ffffffffffffffffffffffffffffffffffffffff191690555b6040518190600160a060020a0384169033907fddf252ad1be2c89b69c2b068fc378daa952ba7f163c4a11628f55a4df523b3ef90600090a4505050565b611108848484611004565b61111484848484611431565b61111d57600080fd5b50505050565b6040805160a0810182528381524267ffffffffffffffff9081166020830190815263ffffffff8981169484019485528881166060850190815261ffff89811660808701908152600180548082018255600082815289517fb10e2d527612073b26eecdfd717e6a320cf44b4afac2b0732d9fcbe2b7fa0cf660029093029283015596517fb10e2d527612073b26eecdfd717e6a320cf44b4afac2b0732d9fcbe2b7fa0cf790910180549a51955193519189166fffffffffffffffffffffffffffffffff19909b169a909a176801000000000000000095909816949094029690961775ffffffffffff000000000000000000000000000000001916700100000000000000000000000000000000919094160275ffff0000000000000000000000000000000000000000191692909217740100000000000000000000000000000000000000009190921602179093558054839161127c91611832565b60408051600160a060020a0387168152602081018390529081018a905260608101899052608081018790529091507f0a5311bd2a6608f08a180df2ee7c5946819a649b204b554bb8e39825b2c50ad59060a00160405180910390a16112e360008583611004565b979650505050505050565b60006112f861151f565b60016007600061130960ff4261187b565b9050600192505b60808310156113c65780831660ff161561135f5761132f60648761187b565b60ff168483600881106113555760e060020a634e487b7102600052603260045260246000fd5b6020020152611396565b61136a60648861187b565b60ff168483600881106113905760e060020a634e487b7102600052603260045260246000fd5b60200201525b6113a16064876117ff565b95506113ae6064886117ff565b96506113bb600183611832565b915060029250611310565b60008093505b60088410156112e3578484600881106113f85760e060020a634e487b7102600052603260045260246000fd5b602002015161140790826117e7565b90508360071461141f5761141c816064611813565b90505b8361142981611860565b9450506113cc565b6000833b63ffffffff1661144757506001611517565b6040517f150b7a02000000000000000000000000000000000000000000000000000000008152600090600160a060020a0386169063150b7a02906114959033908a9089908990600401611798565b602060405180830381600087803b1580156114af57600080fd5b505af11580156114c3573d6000803e3d6000fd5b505050506040513d601f19601f820116820180604052508101906114e791906116f8565b600160e060020a0319167f150b7a0200000000000000000000000000000000000000000000000000000000149150505b949350505050565b6040518061010001604052806008906020820280368337509192915050565b8035600160a060020a0381168114610d2957600080fd5b600060208284031215611566578081fd5b61156f8261153e565b9392505050565b60008060408385031215611588578081fd5b6115918361153e565b915061159f6020840161153e565b90509250929050565b6000806000606084860312156115bc578081fd5b6115c58461153e565b92506115d36020850161153e565b9150604084013590509250925092565b6000806000806000608086880312156115fa578081fd5b6116038661153e565b94506116116020870161153e565b935060408601359250606086013567ffffffffffffffff80821115611634578283fd5b818801915088601f830112611647578283fd5b813581811115611655578384fd5b896020828501011115611666578384fd5b9699959850939650602001949392505050565b6000806040838503121561168b578182fd5b6116948361153e565b9150602083013580151581146116a8578182fd5b809150509250929050565b600080604083850312156116c5578182fd5b6116ce8361153e565b946020939093013593505050565b6000602082840312156116ed578081fd5b813561156f816118c1565b600060208284031215611709578081fd5b815161156f816118c1565b600060208284031215611725578081fd5b5035919050565b6000806040838503121561173e578182fd5b50508035926020909101359150565b60008151808452815b8181101561177257602081850181015186830182015201611756565b818111156117835782602083870101525b50601f01601f19169290920160200192915050565b6000600160a060020a038087168352808616602084015250836040830152608060608301526117ca608083018461174d565b9695505050505050565b60208152600061156f602083018461174d565b600082198211156117fa576117fa61188f565b500190565b60008261180e5761180e6118a8565b500490565b600081600019048311821515161561182d5761182d61188f565b500290565b6000828210156118445761184461188f565b500390565b6000816118585761185861188f565b506000190190565b60006000198214156118745761187461188f565b5060010190565b60008261188a5761188a6118a8565b500690565b60e060020a634e487b7102600052601160045260246000fd5b60e060020a634e487b7102600052601260045260246000fd5b600160e060020a0319811681146118d757600080fd5b5056fea26469706673582212200923a57d9b148446bbf494a476771244f4ca6303151c4aee6541a4cae5e77e2364736f6c63430008040033",
  "immutableReferences": {},
  "source": "// SPDX-License-Identifier: MIT\n\npragma solidity ^0.8.0;\n\nimport \"./IERC721.sol\";\nimport \"./Ownable.sol\";\nimport \"./IERC721Receiver.sol\";\n\ncontract Kittycontract is IERC721, Ownable {\n    uint256 public constant CREATION_LIMIT_GEN0 = 10;\n    string public constant tokenName = \"MubashirKitties\";\n    string public constant tokenSymbol = \"MK\";\n    bytes4 internal constant MAGIC_ERC721_RECEIVED =\n        bytes4(keccak256(\"onERC721Received(address,address,uint256,bytes)\"));\n\n    bytes4 private constant _INTERFACE_ID_ERC721 = 0x80ac58cd;\n    bytes4 private constant _INTERFACE_ID_ERC165 = 0x01ffc9a7;\n\n    struct Kitty {\n        uint256 genes;\n        uint64 birthTime;\n        uint64 mumId;\n        uint32 dadId;\n        uint16 generation;\n    }\n\n    Kitty[] kitties;\n\n    mapping(address => uint256) ownershipTokenCount; //maps from owner's address to how many tokens they own\n    mapping(uint256 => address) public kittyIndexToOwner; //maps from kitties array index (tokenId?) to address of kitty owner\n\n    mapping(uint256 => address) public kittyIndexToApproved;\n    mapping(address => mapping(address => bool)) private _operatorApprovals; //msg.sender=>operator=>true/false?\n\n    uint256 public gen0Counter;\n\n    function breed(uint256 _dadId, uint256 _mumId) public returns (uint256) {\n        //check ownership\n        //check you got the dna\n        //figure out the generation\n        //create a new cat with new properties, give it to msg.sender\n        require(\n            _owns(msg.sender, _dadId) && _owns(msg.sender, _mumId),\n            \"You must own both cats in order to breed\"\n        );\n        uint256 newDna = _mixDna(_dadId, _mumId);\n        uint256 kidGen = 0;\n        uint256 mumGen = kitties[_mumId].generation;\n        uint256 dadGen = kitties[_dadId].generation;\n        if (dadGen < mumGen) {\n            kidGen = mumGen + 1;\n            kidGen /= 2;\n        } else if (dadGen > mumGen) {\n            kidGen = dadGen + 1;\n            kidGen /= 2;\n        } else {\n            kidGen = mumGen + 1;\n        }\n        _createKitty(newDna, _mumId, _dadId, kidGen, msg.sender);\n        return newDna;\n    }\n\n    function supportsInterface(bytes4 _interfaceId)\n        external\n        pure\n        returns (bool)\n    {\n        return (_interfaceId == _INTERFACE_ID_ERC721 ||\n            _interfaceId == _INTERFACE_ID_ERC165);\n    }\n\n    function _safeTransfer(\n        address _from,\n        address _to,\n        uint256 _tokenId,\n        bytes memory data\n    ) internal {\n        _transfer(_from, _to, _tokenId);\n        require(_checkERC721Support(_from, _to, _tokenId, data));\n    }\n\n    function createKittyGen0(uint256 _genes) public isOwner returns (uint256) {\n        require(\n            gen0Counter < CREATION_LIMIT_GEN0,\n            \"Creation limit for Kitties reached\"\n        );\n\n        gen0Counter++;\n\n        return _createKitty(0, 0, 0, _genes, msg.sender);\n    }\n\n    function _createKitty(\n        uint256 _mumId,\n        uint256 _dadId,\n        uint256 _generation,\n        uint256 _genes,\n        address _owner\n    ) private returns (uint256) {\n        Kitty memory _kitty = Kitty({\n            genes: _genes,\n            birthTime: uint64(block.timestamp),\n            mumId: uint32(_mumId),\n            dadId: uint32(_dadId),\n            generation: uint16(_generation)\n        });\n\n        kitties.push(_kitty);\n        uint256 newKittenId = kitties.length - 1;\n\n        emit Birth(_owner, newKittenId, _mumId, _dadId, _genes);\n\n        _transfer(address(0), _owner, newKittenId);\n\n        return newKittenId;\n    }\n\n    function getKitty(uint256 _tokenId) public view returns (Kitty memory) {\n        return kitties[_tokenId];\n    }\n\n    /**\n     * @dev Emitted when `tokenId` token is transfered from `from` to `to`.\n     */\n    //event Transfer(address indexed from, address indexed to, uint256 indexed tokenId);\n\n    /**\n     * @dev Emitted when `owner` enables `approved` to manage the `tokenId` token.\n     */\n    //event Approval(address indexed owner, address indexed approved, uint256 indexed tokenId);\n\n    event Birth(\n        address owner,\n        uint256 kittenId,\n        uint256 mumId,\n        uint256 dadId,\n        uint256 genes\n    );\n\n    /**\n     * @dev Returns the number of tokens in ``owner``'s account.\n     */\n    function balanceOf(address _owner)\n        external\n        view\n        override\n        returns (uint256 balance)\n    {\n        //external means you can't call it from within the contract\n        return ownershipTokenCount[_owner];\n    }\n\n    /*\n     * @dev Returns the total number of tokens in circulation.\n     */\n    function totalSupply() public view override returns (uint256) {\n        return kitties.length;\n    }\n\n    /*\n     * @dev Returns the name of the token.\n     */\n    function name() external pure override returns (string memory) {\n        return tokenName;\n    }\n\n    /*\n     * @dev Returns the symbol of the token.\n     */\n    function symbol() external pure override returns (string memory) {\n        return tokenSymbol;\n    }\n\n    /**\n     * @dev Returns the owner of the `tokenId` token.\n     *\n     * Requirements:\n     *\n     * - `tokenId` must exist.\n     */\n    function ownerOf(uint256 _tokenId)\n        external\n        view\n        override\n        returns (address owner)\n    {\n        return kittyIndexToOwner[_tokenId]; //what does this mean? Is there just one tokenId? Or multiple?\n    }\n\n    /* @dev Transfers `tokenId` token from `msg.sender` to `to`.\n     *\n     *\n     * Requirements:\n     *\n     * - `to` cannot be the zero address.\n     * - `to` can not be the contract address.\n     * - `tokenId` token must be owned by `msg.sender`.\n     *\n     * Emits a {Transfer} event.\n     */\n    function transfer(address _to, uint256 _tokenId) external override {\n        require(_to != address(0), \"Cannot transfer tokenId to zero address\");\n        require(\n            _to != address(this),\n            \"Cannot transfer tokenId to contract address\"\n        );\n        require(\n            _owns(msg.sender, _tokenId),\n            \"Cannot transfer tokenId if you don't own it\"\n        );\n\n        _transfer(msg.sender, _to, _tokenId);\n    }\n\n    function _transfer(\n        address _from,\n        address _to,\n        uint256 _tokenId\n    ) internal {\n        ownershipTokenCount[_to]++;\n        kittyIndexToOwner[_tokenId] = _to; //change ownership in the actual mapping\n\n        if (_from != address(0)) {\n            ownershipTokenCount[_from]--;\n            delete kittyIndexToApproved[_tokenId];\n        }\n        //emit the transfer event\n        emit Transfer(msg.sender, _to, _tokenId);\n    }\n\n    function _owns(address _claimant, uint256 _tokenId)\n        internal\n        view\n        returns (bool)\n    {\n        return kittyIndexToOwner[_tokenId] == _claimant;\n    }\n\n    /// @notice Change or reaffirm the approved address for an NFT\n    /// @dev The zero address indicates there is no approved address.\n    ///  Throws unless `msg.sender` is the current NFT owner, or an authorized\n    ///  operator of the current owner.\n    /// @param _approved The new approved NFT controller\n    /// @param _tokenId The NFT to approve\n    function approve(address _approved, uint256 _tokenId) external override {\n        require(\n            _owns(msg.sender, _tokenId) ||\n                _operatorApprovals[msg.sender][_approved] == true,\n            \"Cannot set approval for this tokenId if you don't own it or are approved for it\"\n        );\n\n        _approve(_approved, _tokenId);\n\n        emit Approval(msg.sender, _approved, _tokenId);\n    }\n\n    function _approve(address _approved, uint256 _tokenId) private {\n        kittyIndexToApproved[_tokenId] = _approved;\n    }\n\n    /// @notice Enable or disable approval for a third party (\"operator\") to manage\n    ///  all of `msg.sender`'s assets\n    /// @dev Emits the ApprovalForAll event. The contract MUST allow\n    ///  multiple operators per owner.\n    /// @param _operator Address to add to the set of authorized operators\n    /// @param _approved True if the operator is approved, false to revoke approval\n\n    function setApprovalForAll(address _operator, bool _approved)\n        external\n        override\n    {\n        require(_operator != msg.sender, \"Cannot set asset owner as operator\");\n\n        _operatorApprovals[msg.sender][_operator] = _approved;\n        //do I have to loop through all of this msg.sender's tokens and approve for each of them?\n        emit ApprovalForAll(msg.sender, _operator, _approved);\n    }\n\n    /// @notice Get the approved address for a single NFT\n    /// @dev Throws if `_tokenId` is not a valid NFT.\n    /// @param _tokenId The NFT to find the approved address for\n    /// @return The approved address for this NFT, or the zero address if there is none\n    function getApproved(uint256 _tokenId)\n        external\n        view\n        override\n        returns (address)\n    {\n        require(kittyIndexToOwner[_tokenId] != address(0)); //check if it's a valid NFT, i.e. if it has an owner\n\n        return kittyIndexToApproved[_tokenId]; //will this return the zero address if there is none?\n    }\n\n    /// @notice Query if an address is an authorized operator for another address\n    /// @param _owner The address that owns the NFTs\n    /// @param _operator The address that acts on behalf of the owner\n    /// @return True if `_operator` is an approved operator for `_owner`, false otherwise\n\n    function isApprovedForAll(address _owner, address _operator)\n        public\n        view\n        override\n        returns (bool)\n    {\n        return _operatorApprovals[_owner][_operator];\n    }\n\n    /// @notice Transfer ownership of an NFT -- THE CALLER IS RESPONSIBLE\n    ///  TO CONFIRM THAT `_to` IS CAPABLE OF RECEIVING NFTS OR ELSE\n    ///  THEY MAY BE PERMANENTLY LOST\n    /// @dev Throws unless `msg.sender` is the current owner, an authorized\n    ///  operator, or the approved address for this NFT. Throws if `_from` is\n    ///  not the current owner. Throws if `_to` is the zero address. Throws if\n    ///  `_tokenId` is not a valid NFT.\n    /// @param _from The current owner of the NFT\n    /// @param _to The new owner\n    /// @param _tokenId The NFT to transfer\n\n    function transferFrom(\n        address _from,\n        address _to,\n        uint256 _tokenId\n    ) external override {\n        require(\n            _owns(msg.sender, _tokenId) ||\n                approvedFor(msg.sender, _tokenId) ||\n                isApprovedForAll(_from, msg.sender)\n        );\n        require(_from == kittyIndexToOwner[_tokenId]);\n        require(_to != address(0));\n        require(_tokenId < kitties.length);\n\n        _transfer(_from, _to, _tokenId);\n    }\n\n    /// @notice Transfers the ownership of an NFT from one address to another address\n    /// @dev Throws unless `msg.sender` is the current owner, an authorized\n    ///  operator, or the approved address for this NFT. Throws if `_from` is\n    ///  not the current owner. Throws if `_to` is the zero address. Throws if\n    ///  `_tokenId` is not a valid NFT. When transfer is complete, this function\n    ///  checks if `_to` is a smart contract (code size > 0). If so, it calls\n    ///  `onERC721Received` on `_to` and throws if the return value is not\n    ///  `bytes4(keccak256(\"onERC721Received(address,address,uint256,bytes)\"))`.\n    /// @param _from The current owner of the NFT\n    /// @param _to The new owner\n    /// @param _tokenId The NFT to transfer\n    /// @param data Additional data with no specified format, sent in call to `_to`\n\n    function safeTransferFrom(\n        address _from,\n        address _to,\n        uint256 _tokenId,\n        bytes calldata data\n    ) external override {\n        require(\n            _owns(msg.sender, _tokenId) ||\n                approvedFor(msg.sender, _tokenId) ||\n                isApprovedForAll(_from, msg.sender)\n        );\n        require(_from == kittyIndexToOwner[_tokenId]);\n        require(_to != address(0));\n        require(_tokenId < kitties.length);\n\n        _safeTransfer(_from, _to, _tokenId, data);\n    }\n\n    /// @notice Transfers the ownership of an NFT from one address to another address\n    /// @dev This works identically to the other function with an extra data parameter,\n    ///  except this function just sets data to \"\".\n    /// @param _from The current owner of the NFT\n    /// @param _to The new owner\n    /// @param _tokenId The NFT to transfer\n\n    function safeTransferFrom(\n        address _from,\n        address _to,\n        uint256 _tokenId\n    ) external override {\n        require(\n            _owns(msg.sender, _tokenId) ||\n                approvedFor(msg.sender, _tokenId) ||\n                isApprovedForAll(_from, msg.sender)\n        );\n        require(_from == kittyIndexToOwner[_tokenId]);\n        require(_to != address(0));\n        require(_tokenId < kitties.length);\n\n        _safeTransfer(_from, _to, _tokenId, \"\");\n    }\n\n    function approvedFor(address _claimant, uint256 _tokenId)\n        internal\n        view\n        returns (bool)\n    {\n        return kittyIndexToApproved[_tokenId] == _claimant;\n    }\n\n    function _checkERC721Support(\n        address _from,\n        address _to,\n        uint256 _tokenId,\n        bytes memory _data\n    ) internal returns (bool) {\n        if (!_isContract(_to)) {\n            //if it isn't a contract, we're sending to a wallet, and no further checks required\n            return true;\n        }\n\n        //have to call the _to contract, call onERC721Received\n        bytes4 returnData = IERC721Receiver(_to).onERC721Received(\n            msg.sender,\n            _from,\n            _tokenId,\n            _data\n        );\n\n        //check return value is equal to bytes4(keccak256(\"onERC721Received(address,address,uint256,bytes)\"))\n        return returnData == MAGIC_ERC721_RECEIVED;\n    }\n\n    function _isContract(address _to) internal view returns (bool) {\n        uint32 size;\n        assembly {\n            size := extcodesize(_to)\n        }\n        return size > 0; //if code size > 0, then it is a contract (as opposed to a wallet)\n    }\n\n    function _mixDna(uint256 _dadDna, uint256 _mumDna)\n        internal\n        view\n        returns (uint256)\n    {\n        uint256[8] memory genesArray;\n        uint256 i = 1;\n        uint256 index = 7;\n        uint8 random = uint8(block.timestamp % 255);\n        for (i = 1; i < 128; i = 1 * 2) {\n            if (random & i != 0) {\n                genesArray[index] = uint8(_mumDna % 100);\n            } else {\n                genesArray[index] = uint8(_dadDna % 100);\n            }\n            _mumDna = _mumDna / 100;\n            _dadDna = _dadDna / 100;\n            index = index - 1;\n        }\n        uint256 newGene;\n        for (i = 0; i < 8; i++) {\n            newGene = newGene + genesArray[i];\n            if (i != 7) {\n                newGene = newGene * 100;\n            }\n        }\n        return newGene;\n    }\n}\n",
  "sourcePath": "/Users/mubashirhussain/Desktop/academy-kitties-template-master/contracts/kittycontract.sol",
  "compiler": {
    "name": "solc",
    "version": "0.8.4+commit.c7e474f2.Emscripten.clang"
  },
  "schemaVersion": "3.4.6",
  "updatedAt": "2022-05-22T16:14:03.253Z",
  "networkType": "ethereum",
  "devdoc": {
    "events": {
      "Birth(address,uint256,uint256,uint256,uint256)": {
        "details": "Emitted when `owner` enables `approved` to manage the `tokenId` token."
      }
    },
    "kind": "dev",
    "methods": {
      "approve(address,uint256)": {
        "details": "The zero address indicates there is no approved address.  Throws unless `msg.sender` is the current NFT owner, or an authorized  operator of the current owner.",
        "params": {
          "_approved": "The new approved NFT controller",
          "_tokenId": "The NFT to approve"
        }
      },
      "balanceOf(address)": {
        "details": "Returns the number of tokens in ``owner``'s account."
      },
      "changeOwner(address)": {
        "details": "Change owner",
        "params": {
          "newOwner": "address of new owner"
        }
      },
      "getApproved(uint256)": {
        "details": "Throws if `_tokenId` is not a valid NFT.",
        "params": {
          "_tokenId": "The NFT to find the approved address for"
        },
        "returns": {
          "_0": "The approved address for this NFT, or the zero address if there is none"
        }
      },
      "getOwner()": {
        "details": "Return owner address",
        "returns": {
          "_0": "address of owner"
        }
      },
      "isApprovedForAll(address,address)": {
        "params": {
          "_operator": "The address that acts on behalf of the owner",
          "_owner": "The address that owns the NFTs"
        },
        "returns": {
          "_0": "True if `_operator` is an approved operator for `_owner`, false otherwise"
        }
      },
      "ownerOf(uint256)": {
        "details": "Returns the owner of the `tokenId` token. Requirements: - `tokenId` must exist."
      },
      "safeTransferFrom(address,address,uint256)": {
        "details": "This works identically to the other function with an extra data parameter,  except this function just sets data to \"\".",
        "params": {
          "_from": "The current owner of the NFT",
          "_to": "The new owner",
          "_tokenId": "The NFT to transfer"
        }
      },
      "safeTransferFrom(address,address,uint256,bytes)": {
        "details": "Throws unless `msg.sender` is the current owner, an authorized  operator, or the approved address for this NFT. Throws if `_from` is  not the current owner. Throws if `_to` is the zero address. Throws if  `_tokenId` is not a valid NFT. When transfer is complete, this function  checks if `_to` is a smart contract (code size > 0). If so, it calls  `onERC721Received` on `_to` and throws if the return value is not  `bytes4(keccak256(\"onERC721Received(address,address,uint256,bytes)\"))`.",
        "params": {
          "_from": "The current owner of the NFT",
          "_to": "The new owner",
          "_tokenId": "The NFT to transfer",
          "data": "Additional data with no specified format, sent in call to `_to`"
        }
      },
      "setApprovalForAll(address,bool)": {
        "details": "Emits the ApprovalForAll event. The contract MUST allow  multiple operators per owner.",
        "params": {
          "_approved": "True if the operator is approved, false to revoke approval",
          "_operator": "Address to add to the set of authorized operators"
        }
      },
      "transferFrom(address,address,uint256)": {
        "details": "Throws unless `msg.sender` is the current owner, an authorized  operator, or the approved address for this NFT. Throws if `_from` is  not the current owner. Throws if `_to` is the zero address. Throws if  `_tokenId` is not a valid NFT.",
        "params": {
          "_from": "The current owner of the NFT",
          "_to": "The new owner",
          "_tokenId": "The NFT to transfer"
        }
      }
    },
    "version": 1
  },
  "userdoc": {
    "kind": "user",
    "methods": {
      "approve(address,uint256)": {
        "notice": "Change or reaffirm the approved address for an NFT"
      },
      "getApproved(uint256)": {
        "notice": "Get the approved address for a single NFT"
      },
      "isApprovedForAll(address,address)": {
        "notice": "Query if an address is an authorized operator for another address"
      },
      "safeTransferFrom(address,address,uint256)": {
        "notice": "Transfers the ownership of an NFT from one address to another address"
      },
      "safeTransferFrom(address,address,uint256,bytes)": {
        "notice": "Transfers the ownership of an NFT from one address to another address"
      },
      "setApprovalForAll(address,bool)": {
        "notice": "Enable or disable approval for a third party (\"operator\") to manage  all of `msg.sender`'s assets"
      },
      "transferFrom(address,address,uint256)": {
        "notice": "Transfer ownership of an NFT -- THE CALLER IS RESPONSIBLE  TO CONFIRM THAT `_to` IS CAPABLE OF RECEIVING NFTS OR ELSE  THEY MAY BE PERMANENTLY LOST"
      }
    },
    "version": 1
  }
}